{
  "abi": [
    {
      "type": "constructor",
      "inputs": [
        {
          "name": "_aiOracleAddress",
          "type": "address",
          "internalType": "address"
        }
      ],
      "stateMutability": "nonpayable"
    },
    {
      "type": "function",
      "name": "aiOracle",
      "inputs": [],
      "outputs": [
        {
          "name": "",
          "type": "address",
          "internalType": "contract IAIOracle"
        }
      ],
      "stateMutability": "view"
    },
    {
      "type": "function",
      "name": "aiOracleCallback",
      "inputs": [
        {
          "name": "requestId",
          "type": "uint256",
          "internalType": "uint256"
        },
        {
          "name": "output",
          "type": "bytes",
          "internalType": "bytes"
        },
        {
          "name": "callbackData",
          "type": "bytes",
          "internalType": "bytes"
        }
      ],
      "outputs": [],
      "stateMutability": "nonpayable"
    },
    {
      "type": "function",
      "name": "calculateYaps",
      "inputs": [
        {
          "name": "modelId",
          "type": "uint256",
          "internalType": "uint256"
        },
        {
          "name": "input",
          "type": "bytes",
          "internalType": "bytes"
        }
      ],
      "outputs": [],
      "stateMutability": "payable"
    },
    {
      "type": "function",
      "name": "callbackGasLimit",
      "inputs": [
        {
          "name": "",
          "type": "uint256",
          "internalType": "uint256"
        }
      ],
      "outputs": [
        {
          "name": "",
          "type": "uint64",
          "internalType": "uint64"
        }
      ],
      "stateMutability": "view"
    },
    {
      "type": "function",
      "name": "erc7007",
      "inputs": [],
      "outputs": [
        {
          "name": "",
          "type": "address",
          "internalType": "contract ERC7007"
        }
      ],
      "stateMutability": "view"
    },
    {
      "type": "function",
      "name": "estimateFee",
      "inputs": [
        {
          "name": "modelId",
          "type": "uint256",
          "internalType": "uint256"
        }
      ],
      "outputs": [
        {
          "name": "",
          "type": "uint256",
          "internalType": "uint256"
        }
      ],
      "stateMutability": "view"
    },
    {
      "type": "function",
      "name": "isFinalized",
      "inputs": [
        {
          "name": "requestId",
          "type": "uint256",
          "internalType": "uint256"
        }
      ],
      "outputs": [
        {
          "name": "",
          "type": "bool",
          "internalType": "bool"
        }
      ],
      "stateMutability": "view"
    },
    {
      "type": "function",
      "name": "requestPending",
      "inputs": [
        {
          "name": "",
          "type": "uint256",
          "internalType": "uint256"
        }
      ],
      "outputs": [
        {
          "name": "",
          "type": "bool",
          "internalType": "bool"
        }
      ],
      "stateMutability": "view"
    },
    {
      "type": "function",
      "name": "requestPrompt",
      "inputs": [
        {
          "name": "",
          "type": "uint256",
          "internalType": "uint256"
        }
      ],
      "outputs": [
        {
          "name": "",
          "type": "bytes",
          "internalType": "bytes"
        }
      ],
      "stateMutability": "view"
    },
    {
      "type": "event",
      "name": "AIGCDataRequested",
      "inputs": [
        {
          "name": "requestId",
          "type": "uint256",
          "indexed": true,
          "internalType": "uint256"
        },
        {
          "name": "modelId",
          "type": "uint256",
          "indexed": false,
          "internalType": "uint256"
        },
        {
          "name": "sender",
          "type": "address",
          "indexed": false,
          "internalType": "address"
        }
      ],
      "anonymous": false
    },
    {
      "type": "event",
      "name": "AIGCDataUpdated",
      "inputs": [
        {
          "name": "tokenId",
          "type": "uint256",
          "indexed": true,
          "internalType": "uint256"
        },
        {
          "name": "aigcData",
          "type": "bytes",
          "indexed": false,
          "internalType": "bytes"
        },
        {
          "name": "proof",
          "type": "bytes",
          "indexed": false,
          "internalType": "bytes"
        },
        {
          "name": "proofType",
          "type": "string",
          "indexed": false,
          "internalType": "string"
        }
      ],
      "anonymous": false
    },
    {
      "type": "error",
      "name": "UnauthorizedCallbackSource",
      "inputs": [
        {
          "name": "expected",
          "type": "address",
          "internalType": "contract IAIOracle"
        },
        {
          "name": "found",
          "type": "address",
          "internalType": "contract IAIOracle"
        }
      ]
    }
  ],
  "bytecode": {
    "object": "0x60a03461015457601f61377a38819003918201601f19168301926001600160401b039290918385118386101761014057816020928492604097885283398101031261015457516001600160a01b03808216929091839003610154578260805283519061278680830191838310908311176101405760c0918391610ff483398681526009878201526859415053455220414960b81b60608201526080602082015260046080820152635941505360e01b60a08201520301905ff08015610136571660018060a01b0319600254161760025560805260325f526003602052805f2060018060401b0319906207a12082825416179055600b5f52624c4b40825f209182541617905551610e9b90816101598239608051818181610126015281816108ea01528181610af601528181610b8d0152610c350152f35b83513d5f823e3d90fd5b634e487b7160e01b5f52604160045260245ffd5b5f80fdfe60806040818152600480361015610014575f80fd5b5f925f3560e01c908163127e8e4d14610bee5750806320f3871814610bbc57806331b221cd14610b7957806333727c4d14610ac65780635092e1e41461083357806375ce7fff14610807578063a1216472146107df578063b0347814146100c65763caaceb5c14610083575f80fd5b346100c25760203660031901126100c257816100be936100ab92358152600160205220610d6f565b9051918291602083526020830190610e11565b0390f35b8280fd5b5090346104c557600319916060368401126104c55767ffffffffffffffff916024823581358581116104c5576100ff9036908601610ca3565b9690946044358781116104c5576101199036908301610ca3565b9490926001600160a01b037f00000000000000000000000000000000000000000000000000000000000000008116338190036107c25750855f526020965f885260ff895f2054161561078b57858991885f525f8a52825f2060ff198154169055810103126104c55784359a818c16809c036104c5578a8111610779578851996101ab601f8301601f19168a018c610d4d565b818b5236828201116104c557815f928a92838e01378b0101528751998a89019081118b821017610779578852600b8a526a233930bab210283937b7b360a91b878b0152855f5260018752610200885f20610d6f565b9485511561072d57865f5260018852885f2061021c8154610cd1565b90816106f1575b505060025489516370a0823160e01b81528681018e90529083169189828781865afa9182156106e7578f98979695949392918b915f936106b5575b508c519a828c015201358b8a01528a895261027889610d31565b6104d0575060025489516318160ddd60e01b81529190811689838781845afa92831561048c57889361049a575b50829d813b156104965788918683928e5194859384926335313c2160e11b84528c8401525af1801561048c57908891610478575b50506002541691823b1561046a5786948c86928d8d8d81519b8c9a8b998a98633f9e380b60e21b8a5289015287016101009052826101048801610330906040906006815265041492d5961760d41b60208201520190565b88810387810160448b0152601982528482017f47656e65726174656420766961205665726966696564204149000000000000009052603c0160648a01520161037791610e11565b908682039085820160848901526013835282017215995c9a599a59590810524810dbdb9d195b9d606a1b9052603c0160a4870152016103b591610e11565b818482030160c48501526103c9908c610e11565b908382030160e48401526103dc91610e11565b03925af1801561046e57610450575b5050917f089e559df65c9a7097361e6934e4dd337fb0cb4e80ed3e892408d12aaf2903799461043d61044a9361043096955b8451978897606089526060890190610e11565b9187830390880152610e11565b9184830390850152610e11565b0390a280f35b61045d9095949295610d09565b61046a579192865f6103eb565b8680fd5b85513d84823e3d90fd5b61048190610d09565b61046a57865f6102d9565b8b513d8a823e3d90fd5b8880fd5b975091508887813d81116104c9575b6104b38183610d4d565b810103126104c5578d9651915f6102a5565b5f80fd5b503d6104a9565b949b939295505087989997519263334834f760e01b84528284015286838681875afa9283156106ab575f9361067c575b50829a843b156104c557899081519687958695633f9e380b60e21b87528601528401610100905281610104850161054b906040906006815265041492d5961760d41b60208201520190565b8581038581016044880152601082528b82016f47656e6572617465642076696120414960801b9052603c0160648701520161058591610e11565b8381038381016084860152600a82526910524810dbdb9d195b9d60b21b8a830152603c0160a48501526105b991018b610e11565b818382030160c48401526105cd9087610e11565b908282030160e48301526105e19088610e11565b03815a5f948591f1801561067257610629575b50927f089e559df65c9a7097361e6934e4dd337fb0cb4e80ed3e892408d12aaf290379949261043d61044a936104309661041d565b610430949197509261043d61044a936106637f089e559df65c9a7097361e6934e4dd337fb0cb4e80ed3e892408d12aaf2903799896610d09565b5f9993965093505092946105f4565b85513d5f823e3d90fd5b9092508681813d83116106a4575b6106948183610d4d565b810103126104c55751915f610500565b503d61068a565b89513d5f823e3d90fd5b9950915088813d83116106e0575b6106cd8183610d4d565b810103126104c557898f9851915f61025e565b503d6106c3565b8b513d5f823e3d90fd5b81601f5f93116001146107085750555b5f80610223565b908083918252610726601f8d8420940160051c840160018501610e4f565b5555610701565b885162461bcd60e51b81528086018990526021818601527f4e6f2070726f6d70742073746f72656420666f722074686973207265717565736044820152601d60fa1b6064820152608490fd5b83604186634e487b7160e01b5f52525ffd5b885162461bcd60e51b815280860189905260128186015271125b9d985b1a59081052481c995c5d595cdd60721b6044820152606490fd5b885163432e033760e11b8152808601919091523381850152604490fd5b82346104c5575f3660031901126104c55760025490516001600160a01b039091168152602090f35b5090346104c55760203660031901126104c557602091355f525f825260ff815f20541690519015158152f35b50816003193601126104c55767ffffffffffffffff9181356024358481116104c5576108629036908501610ca3565b9490938351916020923384820152848682015285815261088181610d31565b855196632dca9c0360e11b8852858489015260a060248901528860a4890152888160c48a01375f60c48a8a010152601f89018589806108e5601f199660c488871684013060448601526207a120606486015260c08582030160848601520190610e11565b0381347f00000000000000000000000000000000000000000000000000000000000000006001600160a01b03165af1988915610abc575f99610a8d575b50885f52600194858752885f20948b11610a7a57506109418454610cd1565b601f8111610a43575b50505f91601f8a116001146109c557509780917fcfef36fb5ea8156a12f7697b4ab088c40e58b2ac99f0b4519a67cb3831810c3298995f926109ba575b50505f19600383901b1c191690831b1790555b855f525f8252835f209060ff1982541617905582519182523390820152a2005b013590508980610987565b891691835f52855f20925f5b818110610a2e5750918593918b7fcfef36fb5ea8156a12f7697b4ab088c40e58b2ac99f0b4519a67cb3831810c329b9c9410610a15575b505050811b01905561099a565b01355f19600384901b60f8161c19169055898080610a08565b838301358555938601939187019187016109d1565b610a6991855f52875f209060051c810191888d10610a70575b601f0160051c0190610e4f565b898061094a565b9091508190610a5c565b604190634e487b7160e01b5f525260245ffd5b9098508581813d8311610ab5575b610aa58183610d4d565b810103126104c55751978a610922565b503d610a9b565b88513d5f823e3d90fd5b50346104c557602091826003193601126104c55780516333727c4d60e01b815282359281019290925282826024817f00000000000000000000000000000000000000000000000000000000000000006001600160a01b03165afa918215610b6f575f92610b37575b50519015158152f35b9091508281813d8311610b68575b610b4f8183610d4d565b810103126104c5575180151581036104c5579083610b2e565b503d610b45565b50513d5f823e3d90fd5b82346104c5575f3660031901126104c557517f00000000000000000000000000000000000000000000000000000000000000006001600160a01b03168152602090f35b5090346104c55760203660031901126104c557602091355f526003825267ffffffffffffffff815f2054169051908152f35b905082346104c557602092836003193601126104c55780355f8181526003865283902054620e1d8d60e41b85529184015267ffffffffffffffff16602483015282826044817f00000000000000000000000000000000000000000000000000000000000000006001600160a01b03165afa918215610b6f575f92610c74575b5051908152f35b9091508281813d8311610c9c575b610c8c8183610d4d565b810103126104c557519083610c6d565b503d610c82565b9181601f840112156104c55782359167ffffffffffffffff83116104c557602083818601950101116104c557565b90600182811c92168015610cff575b6020831014610ceb57565b634e487b7160e01b5f52602260045260245ffd5b91607f1691610ce0565b67ffffffffffffffff8111610d1d57604052565b634e487b7160e01b5f52604160045260245ffd5b6060810190811067ffffffffffffffff821117610d1d57604052565b90601f8019910116810190811067ffffffffffffffff821117610d1d57604052565b9060405191825f8254610d8181610cd1565b908184526020946001916001811690815f14610def5750600114610db1575b505050610daf92500383610d4d565b565b5f90815285812095935091905b818310610dd7575050610daf93508201015f8080610da0565b85548884018501529485019487945091830191610dbe565b92505050610daf94925060ff191682840152151560051b8201015f8080610da0565b91908251928382525f5b848110610e3b575050825f602080949584010152601f8019910116010190565b602081830181015184830182015201610e1b565b818110610e5a575050565b5f8155600101610e4f56fea2646970667358221220d066b85716854e72374f4309eae074bf2d8b7b17f8a262455223959d1736c6a264736f6c634300081700336080604052346200034f5762002786803803806200001d8162000353565b9283398101906040818303126200034f5780516001600160401b03908181116200034f57836200004f91840162000379565b91602093848201518381116200034f576200006b920162000379565b928251908282116200026d575f54916001948584811c9416801562000344575b838510146200024e578190601f94858111620002f1575b5083908583116001146200028d575f9262000281575b50505f19600383901b1c191690851b175f555b84519283116200026d5783548481811c9116801562000262575b828210146200024e5782811162000206575b5080918311600114620001a257508192935f9262000196575b50505f19600383901b1c191690821b1790555b33156200017e57600a8054336001600160a01b03198216811790925560405191906001600160a01b03167f8be0079c531659141344cd1fd0a4f28419497f9722a3daafe3b4186f6b6457e05f80a361239c9081620003ea8239f35b604051631e4fbdf760e01b81525f6004820152602490fd5b015190505f8062000110565b90601f19831694845f52825f20925f905b878210620001ee57505083859610620001d5575b505050811b01905562000123565b01515f1960f88460031b161c191690555f8080620001c7565b808785968294968601518155019501930190620001b3565b845f52815f208380860160051c82019284871062000244575b0160051c019085905b82811062000238575050620000f7565b5f815501859062000228565b925081926200021f565b634e487b7160e01b5f52602260045260245ffd5b90607f1690620000e5565b634e487b7160e01b5f52604160045260245ffd5b015190505f80620000b8565b90879350601f198316915f8052855f20925f5b87828210620002da5750508411620002c1575b505050811b015f55620000cb565b01515f1960f88460031b161c191690555f8080620002b3565b8385015186558b97909501949384019301620002a0565b9091505f8052835f208580850160051c8201928686106200033a575b918991869594930160051c01915b8281106200032b575050620000a2565b5f81558594508991016200031b565b925081926200030d565b93607f16936200008b565b5f80fd5b6040519190601f01601f191682016001600160401b038111838210176200026d57604052565b919080601f840112156200034f5782516001600160401b0381116200026d57602090620003af601f8201601f1916830162000353565b928184528282870101116200034f575f5b818110620003d55750825f9394955001015290565b8581018301518482018401528201620003c056fe60806040908082526004361015610014575f80fd5b5f3560e01c90816301ffc9a7146116745750806306fdde03146115c7578063081812fc1461158c578063095ea7b3146114b057806318160ddd146114925780632075f11114610a8257806323b872dd1461147b5780632f745c59146113fc578063334834f71461132157806342842e0e146112f35780634f6ccce71461129e5780636352211e1461126d5780636a494e631461105c5780636a62784214610d0057806370a0823114610cd4578063715018a614610c795780638da5cb5b14610c5157806395d89b4114610b6e578063a22cb46514610ad3578063aea3050714610a82578063b88d4fde14610a15578063c87b56dd146109c1578063de8f50a114610941578063e985e9c5146108f3578063f2fde38b1461086c5763fe78e02c1461013c575f80fd5b3461086857610100366003190112610868576024356001600160401b0381116108685761016d903690600401611763565b906044356001600160401b0381116108685761018d903690600401611763565b90916064356001600160401b038111610868576101ae903690600401611763565b906084356001600160401b038111610868576101ce903690600401611763565b94909660a4356001600160401b038111610868576101f0903690600401611763565b95909860c4356001600160401b03811161086857610212903690600401611763565b9890996001600160401b0360e43511610868578c956102363660e435600401611763565b969097610262610247600435612199565b6001600160a01b03908116331490811561085a575b5061199e565b6004355f9081526002602052604090205461028c906001600160a01b03161515611a09565b611a09565b6004355f52600b6020525f20956001600160401b0382116105c3576102bb826102b589546118d5565b89611a55565b5f90601f83116001146107f6576102e992915f918361053e575b50508160011b915f199060031b1c19161790565b85555b60018501916001600160401b0382116105c3576103138261030d85546118d5565b85611a55565b5f90601f83116001146107925761034092915f918361053e5750508160011b915f199060031b1c19161790565b90555b6001600160401b0387116105c35761036b8761036260028601546118d5565b60028601611a55565b5f87601f81116001146107295780610397925f9161071e575b508160011b915f199060031b1c19161790565b60028401555b60038301916001600160401b0382116105c3576103be8261030d85546118d5565b5f90601f83116001146106ba576103eb92915f918361053e5750508160011b915f199060031b1c19161790565b90555b6001600160401b0386116105c3576104168661040d60048401546118d5565b60048401611a55565b5f86601f811160011461064f5780610441925f916105d757508160011b915f199060031b1c19161790565b60048201555b6001600160401b0387116105c35761046f8761046660058401546118d5565b60058401611a55565b5f9087601f81116001146105e2578061049e916006945f916105d757508160011b915f199060031b1c19161790565b60058201555b01916001600160401b0382116105c3576104c28261030d85546118d5565b5f90601f831160011461054957826105399795935f8051602061234783398151915299979593610506935f9261053e5750508160011b915f199060031b1c19161790565b90555b818951928392833781015f815203902095818851928392833781015f815203902095519182916004359583611aa4565b0390a4005b013590505f806102d5565b601f19831691845f5260205f20925f5b8181106105ab57509260019285926105399a98965f805160206123478339815191529c9a989610610592575b505050811b019055610509565b01355f19600384901b60f8161c191690555f8080610585565b91936020600181928787013581550195019201610559565b634e487b7160e01b5f52604160045260245ffd5b90508b01355f610384565b50600581015f5260205f205f925b8a601f198b16851061063857506006935089601f1981161061061f575b5050600188811b0160058201556104a4565b8a01355f1960038b901b60f8161c191690555f8061060d565b8101358255602093840193600190920191016105f0565b50600482015f5260205f20905f5b8b601f198a1682106106a257505087601f19811610610689575b5050600186811b016004820155610447565b8a01355f19600389901b60f8161c191690555f80610677565b6001839460209394849301358155019301910161065d565b601f19831691845f5260205f20925f5b81811061070657509084600195949392106106ed575b505050811b0190556103ee565b01355f19600384901b60f8161c191690555f80806106e0565b919360206001819287870135815501950192016106ca565b90508801355f610384565b50601f19881690600285015f528860205f20925f5b81811061077757501061075e575b5050600187811b01600284015561039d565b8701355f1960038a901b60f8161c191690555f8061074c565b8a84013585556001909401936020938401938c93500161073e565b601f19831691845f5260205f20925f5b8181106107de57509084600195949392106107c5575b505050811b019055610343565b01355f19600384901b60f8161c191690555f80806107b8565b919360206001819287870135815501950192016107a2565b601f19831691885f5260205f20925f5b8181106108425750908460019594939210610829575b505050811b0185556102ec565b01355f19600384901b60f8161c191690555f808061081c565b91936020600181928787013581550195019201610806565b600a5416331490505f61025c565b5f80fd5b503461086857602036600319011261086857610886611737565b61088e6121d3565b6001600160a01b039081169182156108dd5750600a54826001600160601b0360a01b821617600a55167f8be0079c531659141344cd1fd0a4f28419497f9722a3daafe3b4186f6b6457e05f80a3005b51631e4fbdf760e01b81525f6004820152602490fd5b503461086857806003193601126108685760209061090f611737565b61091761174d565b9060018060a01b038091165f5260058452825f2091165f52825260ff815f20541690519015158152f35b5034610868576060366003190112610868576001600160401b039060043582811161086857610974903690600401611763565b6024939193358281116108685761098f903690600401611763565b604495919535938411610868576020956109b06109b8953690600401611763565b949093612088565b90519015158152f35b503461086857602036600319011261086857610a11906109e2600435612199565b505f81516109ef81611848565b528051906109fc82611848565b5f8252519182916020835260208301906116f9565b0390f35b3461086857608036600319011261086857610a2e611737565b610a3661174d565b90604435606435926001600160401b038411610868573660238501121561086857610a6e610a8094369060248160040135910161189f565b92610a7a838383611d8f565b336121ff565b005b3461086857610a80610a9336611790565b95610ac0610aa682979397969496612199565b6001600160a01b039081163314908115610ac5575061199e565b611acb565b600a5416331490508a61025c565b5034610868578060031936011261086857610aec611737565b60243590811515809203610868576001600160a01b0316918215610b5757335f526005602052805f20835f52602052805f2060ff1981541660ff8416179055519081527f17307eab39ab6107e8899845ad3d59bd9653f200f220920489ca2b5937696c3160203392a3005b51630b61174360e31b815260048101839052602490fd5b5034610868575f366003190112610868578051905f908260019260015493610b95856118d5565b90818452602095866001821691825f14610c2f575050600114610bd4575b5050610a119291610bc5910385611863565b519282849384528301906116f9565b9085925060015f527fb10e2d527612073b26eecdfd717e6a320cf44b4afac2b0732d9fcbe2b7fa0cf6915f925b828410610c175750505082010181610bc5610bb3565b8054848a018601528895508794909301928101610c01565b60ff19168682015292151560051b85019092019250839150610bc59050610bb3565b5034610868575f36600319011261086857600a5490516001600160a01b039091168152602090f35b34610868575f36600319011261086857610c916121d3565b600a80546001600160a01b031981169091555f906001600160a01b03167f8be0079c531659141344cd1fd0a4f28419497f9722a3daafe3b4186f6b6457e08280a3005b503461086857602036600319011261086857602090610cf9610cf4611737565b612052565b9051908152f35b5034610868576020908160031936011261086857610d1c611737565b90610d256121d3565b600c548151610d3381611848565b5f81526001600160a01b038481169490851561104557835f5260028752845f2054168015908682159283611014575b815f5260038a52875f2060018154019055865f5260028a52875f20826001600160601b0360a01b8254161790558682847fddf252ad1be2c89b69c2b068fc378daa952ba7f163c4a11628f55a4df523b3ef5f80a415610fa7575060085490855f526009895281875f2055600160401b8210156105c357610e0586610ded8460018c9601600855612009565b90919082549060031b91821b915f19901b1916179055565b03610f6f575b610f58573b610e41575b5050505050600c545f198114610e2d57600101600c55005b634e487b7160e01b5f52601160045260245ffd5b84610e7a91845180938192630a85bd0160e11b968784523360048501525f602485015260448401526080606484015260848301906116f9565b03815f885af15f9181610f18575b50610ee25750503d15610edb573d610e9f81611884565b90610eac83519283611863565b81523d5f8583013e5b80519384610ed5578251633250574960e11b815260048101859052602490fd5b84925001fd5b6060610eb5565b9193506001600160e01b031990911603610f025750505f80808080610e15565b6024915190633250574960e11b82526004820152fd5b9091508581813d8311610f51575b610f308183611863565b8101031261086857516001600160e01b03198116810361086857905f610e88565b503d610f26565b83516339e3563760e11b81525f6004820152602490fd5b610f7882612052565b5f198101908111610e2d57865f5260068852855f20815f52885284865f2055845f5260078852855f2055610e0b565b90808214610e0557610fb881612052565b865f5260078a52875f205490825f5260068b52885f2091818103610ff2575b50875f5260078b525f898120555f5289525f87812055610e05565b815f52828c52895f2054815f52808b5f20555f5260078c52895f20555f610fd7565b5f87815260046020526040812080546001600160a01b031916905583815260038b5288902080545f19019055610d62565b8451633250574960e11b81525f6004820152602490fd5b503461086857602090816003193601126108685780519060043561107f8361182d565b606083818095528186820152818482015281808201528160808201528160a082015260c001526110c2815f52600260205260018060a01b0360405f205416151590565b6110cb90611a09565b5f52600b8352805f208151926110e08461182d565b8251806110ed818561190d565b036110f89082611863565b84528251908161110b816001860161190d565b036111169083611863565b8486019182528351908161112d816002870161190d565b036111389083611863565b8585019182528451908161114f816003880161190d565b0361115a9083611863565b86810191825285519283611171816004890161190d565b0361117c9085611863565b60808801938452865194856111948160058a0161190d565b0361119f9087611863565b60a089019586528751806006819901906111b89161190d565b036111c39088611863565b60c089019687528751998a99818b5251908a0160e090526101008a016111e8916116f9565b905190601f1998898b830301908b0152611201916116f9565b905191878983030190890152611216916116f9565b9051908587820301608088015261122c916116f9565b905190848682030160a0870152611242916116f9565b905190838582030160c0860152611258916116f9565b9051918382030160e0840152610a11916116f9565b50346108685760203660031901126108685760209061128d600435612199565b90516001600160a01b039091168152f35b503461086857602036600319011261086857600435600c548110156112d757906112c9602092612009565b91905490519160031b1c8152f35b604491519063295f44f760e21b82525f60048301526024820152fd5b503461086857610a8090611306366117f8565b9192519261131384611848565b5f8452610a7a838383611d8f565b50346108685760203660031901126108685761133b611737565b61134481612052565b156113a75761135281612052565b15611380576001600160a01b03165f9081526006602090815282822082805281529082902054915191825290f35b905163295f44f760e21b81526001600160a01b0390911660048201525f6024820152604490fd5b815162461bcd60e51b815260206004820152602860248201527f455243373030373a204e6f20746f6b656e73206f776e65642062792074686973604482015267206164647265737360c01b6064820152608490fd5b5034610868578060031936011261086857611415611737565b906024359161142381612052565b831015611452576001600160a01b03165f90815260066020908152828220938252928352819020549051908152f35b905163295f44f760e21b81526001600160a01b0390911660048201526024810191909152604490fd5b3461086857610a8061148c366117f8565b91611d8f565b5034610868575f36600319011261086857602090600c549051908152f35b50346108685780600319360112610868576114c9611737565b906024356114d681612199565b33151580611579575b80611552575b61153b576001600160a01b039384169382918591167f8c5be1e5ebec7d5bd14f71427d1e84f3dd0314c0f7b2291e5b200ac8c7c3b9255f80a45f90815260046020522080546001600160a01b0319169091179055005b825163a9fbf51f60e01b8152336004820152602490fd5b5060018060a01b0381165f526005602052825f20335f5260205260ff835f205416156114e5565b506001600160a01b0381163314156114df565b5034610868576020366003190112610868576020906004356115ad81612199565b505f526004825260018060a01b03815f2054169051908152f35b5034610868575f366003190112610868578051905f90825f54926115ea846118d5565b808352602094600190866001821691825f14610c2f57505060011461161b575050610a119291610bc5910385611863565b5f80805286935091907f290decd9548b62a8d60345a988386fc84ba6bc95484008f6362f93160ef3e5635b82841061165c5750505082010181610bc5610bb3565b8054848a018601528895508794909301928101611646565b34610868576020366003190112610868576004359063ffffffff60e01b82168092036108685760209163780e9d6360e01b81149081156116b6575b5015158152f35b6380ac58cd60e01b8114915081156116e8575b81156116d7575b50836116af565b6301ffc9a760e01b149050836116d0565b635b5e139f60e01b811491506116c9565b91908251928382525f5b848110611723575050825f602080949584010152601f8019910116010190565b602081830181015184830182015201611703565b600435906001600160a01b038216820361086857565b602435906001600160a01b038216820361086857565b9181601f84011215610868578235916001600160401b038311610868576020838186019501011161086857565b608060031982011261086857600435916001600160401b0360243581811161086857836117bf91600401611763565b9390939260443583811161086857826117da91600401611763565b93909392606435918211610868576117f491600401611763565b9091565b6060906003190112610868576001600160a01b0390600435828116810361086857916024359081168103610868579060443590565b60e081019081106001600160401b038211176105c357604052565b602081019081106001600160401b038211176105c357604052565b90601f801991011681019081106001600160401b038211176105c357604052565b6001600160401b0381116105c357601f01601f191660200190565b9291926118ab82611884565b916118b96040519384611863565b829481845281830111610868578281602093845f960137010152565b90600182811c92168015611903575b60208310146118ef57565b634e487b7160e01b5f52602260045260245ffd5b91607f16916118e4565b80545f939261191b826118d5565b918282526020936001916001811690815f1461197f5750600114611941575b5050505050565b90939495505f92919252835f2092845f945b83861061196b57505050500101905f8080808061193a565b805485870183015294019385908201611953565b60ff19168685015250505090151560051b010191505f8080808061193a565b156119a557565b60405162461bcd60e51b815260206004820152603660248201527f455243373030373a204f6e6c7920746f6b656e206f776e6572206f7220636f6e6044820152757472616374206f776e65722063616e2075706461746560501b6064820152608490fd5b15611a1057565b60405162461bcd60e51b815260206004820152601d60248201527f455243373030373a20546f6b656e20646f6573206e6f742065786973740000006044820152606490fd5b601f8211611a6257505050565b5f5260205f20906020601f840160051c83019310611a9a575b601f0160051c01905b818110611a8f575050565b5f8155600101611a84565b9091508190611a7b565b90918060409360208452816020850152848401375f828201840152601f01601f1916010190565b929390969591611af1610287855f52600260205260018060a01b0360405f205416151590565b835f52602097600b895260405f2060028101906001600160401b03918285116105c357611b2885611b2283546118d5565b83611a55565b845f8d601f8311600114611d2b57509080611b56925f91611d2057508160011b915f199060031b1c19161790565b90555b600481018286116105c357611b7286611b2283546118d5565b855f8d601f8311600114611cb55750816005949392611ba4925f91611caa57508160011b915f199060031b1c19161790565b90555b019085116105c357611bbd85611b2283546118d5565b5f99601f8611600114611c375750611bfc85805f8051602061234783398151915298999a9b9c5f916105d757508160011b915f199060031b1c19161790565b90555b81604051928392833781015f81520390209481604051928392833781015f815203902094611c3260405192839283611aa4565b0390a4565b601f1986169a825f52815f20915f905b8d8210611c92575050865f8051602061234783398151915298999a9b9c10611c79575b5050600185811b019055611bff565b8a01355f19600388901b60f8161c191690555f80611c6a565b80600184958294958f01358155019401920190611c47565b90508c01355f610384565b908b949392601f198116845f52835f20935f975b828910611d045750506005965010611ceb575b5050600187811b019055611ba7565b8b01355f1960038a901b60f8161c191690555f80611cdc565b840135855596870196600190940193928301928b92508e611cc9565b90508601355f610384565b91601f198116845f52835f20935f905b828210611d7257505010611d59575b5050600185811b019055611b59565b8501355f19600388901b60f8161c191690555f80611d4a565b80929350600185968293968c013581550195019301899291611d3b565b6001600160a01b0382811693918415611ff157825f5260206002815260409583875f2054169533151580611f63575b5086158015611f32575b825f5260038452885f2060018154019055865f5260028452885f20836001600160601b0360a01b8254161790558683897fddf252ad1be2c89b69c2b068fc378daa952ba7f163c4a11628f55a4df523b3ef5f80a415611ec657600854865f526009845280895f2055600160401b8110156105c35786610ded826001611e509401600855612009565b818703611e8b575b5050501692838303611e6a5750505050565b6064945051926364283d7b60e01b8452600484015260248301526044820152fd5b611e9490612052565b5f19810192908311610e2d576007915f5260068152875f20835f52815285885f2055855f5252855f20555f8080611e58565b868214611e5057611ed687612052565b865f5260078452885f205490885f5260068552895f2091818103611f10575b50875f52600785525f8a8120555f5283525f88812055611e50565b815f528286528a5f2054815f52808c5f20555f52600786528a5f20555f611ef5565b5f87815260046020526040812080546001600160a01b03191690558881526003855289902080545f19019055611dc8565b80611fb0575b15611f74575f611dbe565b878688611f91576024915190637e27328960e01b82526004820152fd5b905163177e802f60e01b81523360048201526024810191909152604490fd5b503387148015611fd5575b80611f695750855f52600483523385895f20541614611f69565b50865f5260058352875f20335f52835260ff885f205416611fbb565b604051633250574960e11b81525f6004820152602490fd5b60085481101561203e5760085f527ff3f7a9fe364faab93b216da50a3214154f22a0a2b415b23a84c8169e8b636ee301905f90565b634e487b7160e01b5f52603260045260245ffd5b6001600160a01b03168015612070575f52600360205260405f205490565b6040516322718ad960e21b81525f6004820152602490fd5b600c54959294929392915f5b8781106120a75750505050505050505f90565b5f818152600260205260409020546001600160a01b03166120cb575b600101612094565b805f526020600b8152604090815f2082516120f4816120ed816002860161190d565b0382611863565b82815191012061210536878961189f565b838151910120149283612166575b8361212e575b505050156120c3575050505050505050600190565b6005929350906120ed6121469251809481930161190d565b8181519101209061215836898861189f565b8051910120145f8080612119565b8093505161217b816120ed816004860161190d565b82815191012061218c368a8d61189f565b8381519101201492612113565b5f818152600260205260409020546001600160a01b03169081156121bb575090565b60249060405190637e27328960e01b82526004820152fd5b600a546001600160a01b031633036121e757565b60405163118cdaa760e01b8152336004820152602490fd5b9293909193843b612211575050505050565b604051630a85bd0160e11b8082526001600160a01b0395861660048301529385166024820152604481019190915260806064820152602095949093169392908590829081906122649060848301906116f9565b03815f885af15f9181612306575b506122cf575050503d5f146122c8573d61228b81611884565b906122996040519283611863565b81523d5f8483013e5b805192836122c357604051633250574960e11b815260048101849052602490fd5b019050fd5b60606122a2565b9193506001600160e01b0319909116036122ee57505f8080808061193a565b60249060405190633250574960e11b82526004820152fd5b9091508581813d831161233f575b61231e8183611863565b8101031261086857516001600160e01b03198116810361086857905f612272565b503d61231456fe65deac95b53ba76b9cdc6cf446af81731e1218c91eaf9811a95d28bde23b893ea2646970667358221220b755c2ef41709a54a40c3be78700d3554ba4b3491a608eae2b4b481cd1fb686564736f6c63430008170033",
    "linkReferences": {}
  },
  "methodIdentifiers": {
    "aiOracle()": "31b221cd",
    "aiOracleCallback(uint256,bytes,bytes)": "b0347814",
    "calculateYaps(uint256,bytes)": "5092e1e4",
    "callbackGasLimit(uint256)": "20f38718",
    "erc7007()": "a1216472",
    "estimateFee(uint256)": "127e8e4d",
    "isFinalized(uint256)": "33727c4d",
    "requestPending(uint256)": "75ce7fff",
    "requestPrompt(uint256)": "caaceb5c"
  },
  "id": 40
}